:100000004D424E014D3448502301040001000000D0
:100010006000000000C000000000000000000000C0
:1000200000002101000000000000000000040000AA
:1000300001002301010024000004000000900000E2
:100040000200040125002A000094000000180000AE
:10005000030004012B002F0000AC0000001400007E
:1000600000380020890100000000000000000000AE
:100070000000000000000000000000000000000080
:100080000000000000000000000000000000000070
:10009000000000000000000000000000550000000B
:1000A00057000000950000006D0000008100000076
:1000B00000000000FEE7034B01221A70024B0022F1
:1000C000DA7770470000002008000050034B01223F
:1000D0005A70A0230022DB051A7070470000002030
:1000E000034B01229A70A0230022DB059A7070470F
:1000F0000000002010B58022D2051379DBB2002B5E
:100100000CD12A4C6360A360294B10891B6880B214
:10011000E060002B3ED0984720613BE0012B09D1E5
:10012000224B1869002835D099684C1C9C60137AC2
:1001300043542FE0022B28D11C4C2369002B03D001
:1001400061685B5C1BBAD3601A4B1B68002B05D03F
:100150006268E168501880B2984712E0E16862680E
:10016000802388182138FF38DB05072806D8611856
:100170008A180D3AFF3A127812BA01E0FF221206ED
:10018000DA6063680133636004E0032B02D1074B3C
:1001900000229A60C0468023DB0501221A70C04607
:1001A00002221A7000221A7010BDC0460000002002
:1001B00024000020200000207047031C00208B42F8
:1001C00002D204CB8018FAE7704780230222DB05B5
:1001D000FF321A600421034AFF31118000221A7095
:1001E0007047C04606000040F8B5A023DB059B68B9
:1001F0004F4A1F21DBB21160D12B0DD0D02B01D87B
:10020000013300E0013BA022D2059168FF20DBB260
:10021000814319439160EFE7464B474A191D043B60
:10022000934203D200221A600B1CF6E7FFF7CDFFC2
:10023000424B4349D889434BCD885A88424C130AD4
:100240006375424E01235B42ADB22275A375E3751F
:1002500023766376A376E376B0420ED0A8420CD123
:100260008B88934209D13A493A480439FFF7A5FFF0
:10027000002802D12B0AA575E375374BDA89FF2ACE
:1002800013D0364FDA89FB889A420ED1BB88AB4235
:100290000BD1334933480439FFF78FFF002804D1CD
:1002A000FB889BB223761B0A63762F4FFB8BFF2BB9
:1002B00023D02E4BFA8B598A8A421ED11B8AAB421D
:1002C0001BD100221023013BDBB2FF2B04D02849B5
:1002D000C95C5218D2B2F6E7002A0ED12549264D44
:1002E00026481039E561FFF768FF3B8A984204D140
:1002F000AB899BB2A3761B0AE376E27DA37D120253
:100300001A43124BB2420BD0627E217E12020A4384
:100310009A4205D0E27EA17E12020A439A4204D19B
:10032000174B02221A6062B6FEE700F0A1F8F7E769
:1003300028000050040000202800002000040000D5
:10034000F8930000FC03000000000020FFFF000005
:10035000009400000004000000940000F8AB0000CE
:1003600000AC00000094000000AC0000ECBF0000F6
:10037000F0BF000000C00000F2BF000000AC0000B1
:1003800000E100E0FFFFFFFFFFFFFFFFFFFFFFFFB8
:10039000FFFFFFFFFFFFFFFFFFFFFFFFFFFFFFFF6D
:1003A000FFFFFFFFFFFFFFFFFFFFFFFFFFFFFFFF5D
:1003B000FFFFFFFFFFFFFFFFFFFFFFFFFFFFFFFF4D
:1003C000FFFFFFFFFFFFFFFFFFFFFFFFFFFFFFFF3D
:1003D000FFFFFFFFFFFFFFFFFFFFFFFFFFFFFFFF2D
:1003E000FFFFFFFFFFFFFFFFFFFFFFFFFFFFFFFF1D
:1003F000FFFFFFFFFFFFFFFFFFFFFFFFFFFFFFFF0D
:10040000FFFFFFFFFFFFFFFFFFFFFFFFFFFFFFFFFC
:10041000FFFFFFFFFFFFFFFFFFFFFFFFFFFFFFFFEC
:10042000FFFFFFFFFFFFFFFFFFFFFFFFFFFFFFFFDC
:10043000FFFFFFFFFFFFFFFFFFFFFFFFFFFFFFFFCC
:10044000FFFFFFFFFFFFFFFFFFFFFFFFFFFFFFFFBC
:10045000FFFFFFFFFFFFFFFFFFFFFFFF2101210164
:100460004D344850434F5431000000000000230138
:10047000F0B5E3B002AF03F05CFF05F0D5FCB86166
:1004800008F048FA002008F0C1FA08F0F1FF00F087
:1004900021FFD54AD54B1A60D54AD64B1A6005F0D4
:1004A000C3FC061E072E00D1A9E2072812D8032894
:1004B00000D183E204D8012800D141E222D949E2E7
:1004C000052800D189E200D990E205F033FD02F061
:1004D000B9FD7DE20C2800D1B6E209D80A2800D186
:1004E0009FE200D9A7E2082800D191E2BE61D6E7D9
:1004F0000E2800D1BDE200D2AFE20F28F6D105F000
:1005000019FDC8E205F0A6FC051E14D00128EDD1A6
:10051000B94B00241B68302118621C613F233C86C4
:10052000CB55391C201C2C31221CFC6205F06EFDC1
:100530007C623D62A4E00124012C02D0022C0BD08D
:1005400087E0002001F022F803F030FBC0B205F094
:100550009FFD022002F09AFBA74B6A461B68FA61D6
:1005600019685A681B695143CB189B000A33DB0892
:10057000DB0039626946C91A8D463D1C02AADC358A
:100580003C1C7A62281C00215222883408F08CFB23
:1005900000212A22201C08F087FB98497A6A0B6800
:1005A000396A1A608A00796A5D618A185A609C61AA
:1005B000934B3A621B6869462D331A785200131C1C
:1005C0000833DB08DB00C91A8D4602AD0021281C68
:1005D00008F06AFB786A396A01F00CFABA69002AF5
:1005E00001D005F0A7FC874B00221B681A6005F0BC
:1005F00049FD041C03F0DAFAA04204D0201C03F0E9
:10060000DAFA022409E000953A1C3B1C786A396A40
:10061000DC32883302F024FA041C7A4B7A491B68D6
:100620001A688A4201D001321A60002C07D105F005
:1006300011FC002803D105F0F7FB0028D7D06F4943
:1006400000220B681A605A605A619A61FA69BE61A9
:10065000954605F0FFFB002800D047E705F0E4FBD6
:10066000002800D168E741E7022A0FD005F0F2FB2D
:10067000012800D03AE705F0D7FB002800D035E785
:100680003A6A012AF0D1022002F000FB5A4B694677
:100690001C68B9606368226821695A4353189B003B
:1006A0000A33DB087A61DB006A46D21A9546381CA9
:1006B00002AB0021A422DC30FB613D1C08F0F4FAFF
:1006C000381C002152225C35883008F0EDFA0021F8
:1006D0002A22281C08F0E8FA6269A3696946534394
:1006E0009B000A33DB08DB00C91A444B8D461B68AC
:1006F000F96902AA19607969FA608A00F9699D614D
:100700008A187A615A608821DC22D219C9191A61C3
:1007100059613C4B1A68136E526E00927A69F86800
:10072000F96906F0C9F9BA69002A01D005F002FC9E
:100730000024A22338213C87CB55391C201C34319E
:10074000221C7C6305F062FC2E4B1B681C6005F0CC
:1007500099FC051C03F02AFA3861A84205D0281C30
:1007600003F029FA02223A62C8E0002C7AD1224B27
:1007700069461B6879609A6951005A6901324A4397
:10078000131C0833DB08DB006946C91A8D4602AB2F
:10079000181C211CBB6108F087FA042003F0CCFB75
:1007A000184DB8692B68FA68196E06F00BFA786272
:1007B00001283AD1124B1B685B7C002B26D003F03A
:1007C00073FA201C05F04EFB2B6840215C60CA19AF
:1007D000CC530E23391C1370201C3C31221CFC63AB
:1007E00005F014FC3BE0C0463D6000002400002002
:1007F0009D60000020000020F40400202C00002058
:100800007010002028000020FFFFFF7F052003F06C
:1008100093FB391C4431A323201C221C8C807C6454
:100820000B7105F0F3FB7C6A19E09D4DF8682B68AD
:10083000B9695A7806F0B0FA2968087803F0BBF96C
:1008400003F0D0F92B68587802F0B2FF201C02F0B8
:10085000E7FF386903F0AFF903F0E8F93C627A6822
:1008600095464BE08E4B1B6898788E4B1B689867BB
:1008700002F09EFF052003F037FB3B1C5C33009326
:100880003A1CF8697969DC322C3301F093FB386249
:10089000002805D1381CDC3007F074FFC0B2786244
:1008A0007B6A022B12D103F013FB012002F075FFCB
:1008B000002005F0D7FA0022391C4C310E23101C01
:1008C0008A80FA640B7105F0A1FB17E0796A0029B0
:1008D00010D103F0FDFA012002F05FFF7A6A391CA3
:1008E0005431A223101C8A807A650B7105F08EFBAF
:1008F0007C6A03E003F0ECFA03F0D6F9694B6A492D
:100900001B681A688A4201D001321A60396A0029CC
:1009100008D105F09FFA012804D105F085FA0028D6
:1009200000D114E708F024F8604B00221B681A601D
:100930005A601A615A619A61BA68BE61954695E635
:10094000002005F00BFB05F0F5FA05F06DFA012823
:10095000FBD0CBE501F09AFA05F05AF9002003F03C
:10096000B9FB03F03FFB00F0A5F802F0A1FD504BEE
:10097000C35C0020002B00D1022002F087F905F0B3
:10098000D9FA05F0F7FA02280CD004D801280ED1C4
:1009900001F034FB0BE0032807D0042807D104F052
:1009A0009BFE04E001F0E6FB01E001F089FC05F0AC
:1009B0003BFA0228E5D001F0C5FA97E505F0BAFA4E
:1009C000012002F063F905F02FFA0328FBD08DE532
:1009D00005F02AFA0428FBD088E505F0ABFA04F00C
:1009E00033FD05F021FA0528FBD07FE505F0A2FADA
:1009F00002F05AFC05F018FA0628FBD076E505F05F
:100A000099FA00F0A9FB05F00FFA0728FBD06DE575
:100A100005F090FA03F0C2FC05F006FA0828FBD0B6
:100A200064E505F087FA012000F0B0FD05F0FCF95F
:100A30000A28FBD05AE505F07DFA04F095FB05F095
:100A4000F3F90B28FBD051E505F074FA00F0BEF97C
:100A500005F0EAF90C28F9D048E505F06BFA00201A
:100A600003F06AFA03F044FB05F0DEF90D28F6D036
:100A70003CE505F05FFA002002F0D9FD002003F00C
:100A80005BFA03F035FB05F0CFF90E28F6D0012014
:100A900002F0CDFD2AE505F0C7F90F28FBD025E5CA
:100AA0007410002028000020FFFFFF7F2C00002092
:100AB000C6030000F8B5164D7146281C764603F0B3
:100AC00029FD144C276803F035F9B865276803F051
:100AD00035F9F865276803F035F93866276803F0BB
:100AE00035F97866276803F083F9B866276803F05C
:100AF0004BFA094A094912680968F866C978127CF4
:100B000023684A43281C311C5A6703F01BFDF8BDBB
:100B1000550A0000280000207010002074100020EA
:100B2000014B18607047C04670100020014B1868D8
:100B30007047C04670100020014B18607047C046D7
:100B400074100020014B18687047C04674100020D4
:100B5000014B18687047C04628000020014B5868B8
:100B60007047C0462800002038B50B4C7146201C49
:100B7000754603F0CFFC094B201C1B68DA68002A7D
:100B800003DD59695218D20F00E000227D33291C81
:100B90001A7003F0D7FC38BD090B000028000020B4
:100BA000F0B5384F73468BB07146381C019303F093
:100BB000B1FC354ECB2233689200995C1A1C7D3211
:100BC000002904D1C4218900595C002901D00021E9
:100BD00011701478002C2CD01A1DD26F03A9079223
:100BE0005A6900240892DB688C80099303234B70B8
:100BF0007C235B42CB7010230B71244B01251B68B7
:100C00000D708D700533DA7F48797F23D201034060
:100C10001343201C07AA4B7105F0F8F9336804331D
:100C2000DA6F022A02DC5219DA6723E0DC672C1C37
:100C300020E05A6905A90792DB688C80089301239C
:100C40000B708B707C235B42CB7064230B710F4B5A
:100C500002221B684A700533DA7F48797F23D2016C
:100C600003401343092007AA4B7105F0CFF93368FD
:100C70000433DC67381C019903F064FC201C0BB0C2
:100C8000F0BDC046410B000028000020F404002005
:100C900038B5054C75467146201C03F03BFC291CF9
:100CA000201C03F04FFC38BD310C000038B5054C5A
:100CB00075467146201C03F02DFC291C201C03F0F6
:100CC00041FC38BD4D0C000038B5054C75467146E9
:100CD000201C03F01FFC291C201C03F033FC38BD32
:100CE000690C0000F7B5344D73467146041C281C8E
:100CF000019303F00FFC314B314A1B68AC46995C01
:100D0000CB229200002905D02E49595C002901D13F
:100D1000012199549A5C002A46D0C42200259200F1
:100D20009D54294A2E1C1768291C3A6A013A0DD392
:100D300050002018543000880028F7D0013100B24C
:100D4000C9B28542F2DA051C161CEFE71D4A9A5C0F
:100D5000002A0ED101290CD9012222703A6A013AE7
:100D600009D3B242FBD051006118543100200880F1
:100D7000F5E7002903D0CC220021920005E0CC2227
:100D800092009958032901DC01319950CC2292003C
:100D90009A58032A0BDDCB22002192009954C422D9
:100DA00001219200995402E0CC2189005A506046FA
:100DB000019903F0C7FBF7BD850C00002800002057
:100DC000110300003E030000F4040020F0B599B0C8
:100DD00000AF7446714698487C6103F09BFB02F0BB
:100DE0004FFB964D2C68E368A6685A00BE64111C40
:100DF000C07908319B00C9080A333864C9006846C5
:100E0000DB08401ADB008546C01A23696E4659008C
:100E100008319B00C9080A33C900DB08DB0085469E
:100E2000F862401ABE638546C01A6E46B8628546AF
:100E30000021B86B7E6307F037FF22690021520062
:100E4000786B07F031FF002003F076F82868BE6C5D
:100E50000468321C62437A4B91001D68B3005B4208
:100E60007B62B307F964F31A91073B62891AFA634C
:100E7000013C22D34668FA6B931966437618B20098
:100E8000FE6A9B00B2187A64FA6C93420BD07A6CBB
:100E90000426D21894462A6E7642D258B444664646
:100EA0003260043BF0E77E6A9219FA64BE6CFA6B1A
:100EB000921B3E6AFA638919DAE73C6C604B013C8D
:100EC0003A6C1868FC61A300013A05D3416EBE6A12
:100ED000C958F150043BF7E73B6C013B9B00BB61F9
:100EE00004F0A2FF0C2800D09FE0002003F024F8BB
:100EF000524B1868524B01681D68BB6C79644B43B8
:100F00009A00FA649A07D21A3A63FB630A1C013A00
:100F100034D34168FC6B0E1C56436318494C9B004C
:100F200009198919BC6B490061183C6B3619FC6AB8
:100F3000B600A6197E60FC6CA34213D07E68F4183C
:100F4000043C2668B4462E6EF4586646361BBE60D6
:100F500000268C5FA446BC68A44500DA0C80043BE4
:100F60000239E8E77E6AF96BA419FC64BC6C3E6B3D
:100F7000091B3C6AF96336193E63C8E7304BFE69CA
:100F80001D687C6B73003E6CBA69E318FE64FC6CF0
:100F9000013CFC640ED3BC6A6E6EA458FC60F96818
:100FA000B4580C1B00215E5EA64200DA1C80023B96
:100FB000043AECE7037900245426F4535126F35500
:100FC00080267A6C52207642C35550210225331C6C
:100FD000CA552B435321CB555422391CD05550317F
:100FE000BA6B012005F012F85C23DC530120582471
:100FF000E0553C6C5921CC5571235C24E3550F4BD3
:1010000035431B685A215B22C8555D26D5550533EB
:10101000F15DDA7F7F23D2010B401343F1190B708E
:101020007A6B053904F0F2FF5AE70348796903F057
:1010300089FABD4619B0F0BD6D0D0000F404002022
:1010400028000020FFFFFF7F82B0F0B589B0109C20
:10105000151C0F930693029407900E1C119C02F02E
:101060000FFA47793A4B04978279964206D11B686A
:1010700000215A6EAB00D05A03910BE01A68354B31
:10108000126E1968731C896803964B43EB18013381
:101090009B00D05A0499714349194A00A418238827
:1010A000069E0193019F7318874203D8C61B029FB7
:1010B000BE521CE0029EB61805960027F65F013668
:1010C00010D01F787EB2B446013601DA013703E052
:1010D0006646002E06DD013F1F7002235B4223801F
:1010E00001202FE0069F79180F78002F01D1208072
:1010F0000CE07FB27C1C05D1019E059F301A388020
:10110000002002E0012F01D1FF2008701978039C14
:10111000049E079F48B274437D19002805DC029E97
:10112000B25E013208D0002906D12A5700203E2A9B
:1011300008DC0131197005E02A57002A01DD013968
:101140001970002009B0F0BC08BC02B01847C046B6
:1011500028000020F4040020F0B5714691B07446D8
:101160005848099403F0D6F902F08AF9069005F080
:1011700039F8554B069D1A68ED7917689068079500
:101180003D1C4543514B81001E6805914B42A9000F
:10119000741A029003944E488024BC46089300952C
:1011A00024066746013FBC4621D3009D5768EB19D2
:1011B0009B008B4210D0039FFD18376E8035FF587F
:1011C0002D687D1B0495AC4200DA2C1C049FB842AC
:1011D00000DD381C043BECE7039D059F089BED19DF
:1011E000C9180395009B029D5B1B0093D9E70F90E4
:1011F0006946002029252A2788850E9401230AACF8
:1012000002216D446F44297023703B702B217C2395
:101210005B4269440B700BAC54232D2523706D4445
:1012200005322978D27F7F23D2010B4013430AA9CC
:101230000EAA2B7004F0EAFE244B254F80251E6871
:10124000079C02972D06013CE4B2FF2C16D0776E66
:1012500006980397417A079807F078FC039BA7004C
:10126000FA58C9B2F76E8900CB59D31A9D4200DAF9
:101270001D1C029F9F42E6DD0293E4E70CA90123B7
:101280000B708B707C235B42CB7000206B238880BB
:101290000B710D4B029C1B6802220F940E954A7035
:1012A00005334C79DA7F7F23D201234013430EAA02
:1012B0004B7104F0ABFE0348099903F043F911B0F8
:1012C000F0BDC046F9100000F40400202800002002
:1012D000FFFFFF7F37B5114C7146201C754603F0A8
:1012E00019F905F0D3FD02F0B5FE021E07D16946DB
:1012F000A923888000900B7104F088FEFEE7084B5C
:101300001B6803CB02F0A0F905F0D8FDFFF7D2FB74
:10131000291C201C03F016F937BDC04675120000C9
:10132000F4040020F0B591B000AF744678613961E3
:1013300092487146FA60BC6003F0ECF803F0ACF838
:1013400085002B1C0A33DB08DB006E46F61AB54617
:101350006C46B8616846FC6203F0A6F8BE69760088
:10136000331C0833DB08DB00E01A85463E636C461D
:1013700002267C6203F0B4F87E637C6B013C7C63E4
:101380007F4C7E6B2368B6009A19FC32D06AFE61EE
:1013900063282FDD0021D1627A6B502656439821B5
:1013A000490070181818FF212A1C07F07DFCD1365F
:1013B0002268FF36901900212A1C07F075FC7B6B10
:1013C00028265E439C212268890070181018FF218E
:1013D0003A6B07F069FCB02321689B00F618881966
:1013E0003A6B002107F060FC23687C6B0122FC3320
:1013F00062409A62624BF8691E68031CB4466344FB
:10140000FC33DA6A7C6B0132DA62002CB5D1FC6AFB
:10141000BE6965197300BD623E6B7D6A5B42AD19A2
:10142000FB6166447B6B7D62FE62F869834234D067
:10143000B96A5A008A187C6A043A3D6B1068E2184F
:10144000023AFE6A14885A194E4D52007119BE268E
:101450007600351C6544AA180225C9187D607E688F
:10146000013E7E60161CA0363568854200D2306091
:101470001668864200D910600E1C50363588A54289
:1014800000DA34800E88A64200DD0C807E682839A0
:10149000503A002EE3D1023BC7E73B4BFD68196889
:1014A00000234A688C46364990000E682C183A632F
:1014B0003018043B013A04D3C518E65884352E6031
:1014C000F7E70A685020131CFC339B6AE824584352
:1014D000282664005E4301193130FF30B025101812
:1014E000AD00F86270191018B8629C2080003618A0
:1014F000002451189619251C786BBB69984211DAA3
:10150000786B8300C8582D18F86AC358786BED1AA9
:101510004300B86AC05AF35AC31AE4187B6B01330C
:101520007B63E9E70023BB87396B01233826F3553A
:1015300039203A26C155F3553B200423C3553C219D
:101540005B23CB5563460533D97F3D23D85D7F238D
:10155000C90103400B43391C84323D260220383137
:10156000F35504F053FD7E69044835803D69B96840
:101570002C8002F0E7FFBD4611B0F0BDC51200009F
:101580002800002096020000F4040020F0B5A3B06B
:1015900000AF76467146B861E248BE6002F0BAFF1D
:1015A000E14C2368DB68BB635B0001333B6502F001
:1015B000EDFA2368FF22DB68F865D31A984200DD54
:1015C000FB656E46F86D02F0E9FA7E643E6D684692
:1015D00075002B1C0833DB08DB00C01A85466E46FD
:1015E000FE640123602161226226CB55F355D35559
:1015F000002464207C23C4535B426320C3556421D0
:10160000B123CB55C94B65261B68201C0533DA7FF7
:101610006523D95D7F23D2010B401343391C3A1C4B
:1016200060315C32F35504F0F1FCF86DBE6B831B46
:101630009BB23E6DB44205DAFE6C62001919B152DC
:101640000134F6E73A6D0126D2B268216923CE55FE
:10165000DA556B210223CB55B44B00246C201B6858
:10166000C4536A20C6553A610533DA7F6D23D95DCC
:101670007F23D2010B4013436D20391CC3556831C1
:10168000201CFA6C04F0C2FC2B1C796C08338D46CC
:10169000DB08DB006A46D21A9546D21A694695469F
:1016A00079633A6302F0F8FE396D78647A6C8B00E6
:1016B0005A43131C0A338000DB08DB00F8606846DD
:1016C000C01A8546C01A3A62B8626A468546301C1E
:1016D000FA6202F0F3F8211C2A1C386B07F0E4FAD6
:1016E000786B211C2A1C07F0DFFAFE68FC64FE619F
:1016F00000213A6AF86A07F0D7FAB86AFF213A6A15
:1017000007F0D2FA0026884B3E601B683E689B6853
:101710009E424FDABE6BF96DF6B2881BC0B27E6591
:1017200002F049FA02F012FA02F0BEF800252C1C71
:101730003E6D0134E217F30FB4425341DBB23B6418
:10174000002B08D17E6DF96DA01B4018C0B202F0CD
:1017500032FA02F0FBF9FB686E460A33DB08DB0065
:10176000F01A85467E616E46FE6302F09DFE002300
:10177000191C7E6CB14210DAFE6BF258FE6A7019C9
:10178000C658964200D2C250BE6A7019C6589642D8
:1017900000D9C25001310433EBE77E69B546FE69DA
:1017A000AD193E6C002E02D102F07EF8C0E73E6813
:1017B0000136A8E75E4E00257D653E642C1C3E6D1B
:1017C000B44228DA0020031C7E6CB3420CDAFE6AB5
:1017D0009A007619B158BE6A8C46711984448A58A9
:1017E0006146881A0133EFE73E6C864206DDF96DEB
:1017F000BE6B63189B1B7B623864BC647E6D864243
:1018000000DA786502F044F87E6B6300F052FE69FE
:101810000134AD19D3E7444B7E6D1B68DB889E42D3
:1018200006DABE69012E03D0FE6D7E62BE6BBE6419
:10183000404B32211B680022FC33D9626421FE69CF
:101840009A621963BB6C151C7343BE6AF618FE637B
:10185000FE6AF3187B617E6CB54225DAF96BA8004D
:101860000958344C3864081C2668796002F010F876
:101870002B1C4C339B0098517A693B6C2668D058DE
:1018800002F006F82B1C74339B00226898516B0001
:10189000D31801219C22494292009952B022002182
:1018A000920099520135D6E7BE69012E44D13A6BB8
:1018B00000233E6DB34209DA7E6B5900715A1088DD
:1018C000884200D2118001330232F2E7BE6C73000D
:1018D0003E6B9A5BFE6C131CB24200D2331C9BB26F
:1018E00000207421C853FB64396901237022D35549
:1018F00071267222F155D35573260223F3550B4BF3
:1019000075261B680533DA7F7523D95D7F23D201E5
:101910000B40391C134370313A6BF35504F076FBDE
:101920000FE0C0462D15000074100020F4040020C4
:10193000FFFFFF7F28000020786D01F0A9FF80B233
:10194000F864BE6C8020C6537E6A8220C653BE6C8B
:10195000862175007E6B84207519FE6C2B88CE5312
:10196000391C7831C35304234B7002230020CB7001
:10197000B22388800B711A4B01241B680C708C7089
:101980000533DA7F4E797F23D201334013433A1C6B
:1019900080324B7104F03AFB124B1A68124BD05C48
:1019A000002808D1114B1B68DA882B889A4200D294
:1019B000201C04F061FBBE69002E0AD17E6AF0B2E1
:1019C00002F0F9F80A48B96802F0BCFDBD4623B040
:1019D000F0BD04F029FA0A2800D189E6EEE7C046F6
:1019E000F4040020280000203F03000074100020B1
:1019F0002D150000F0B5264C85B0734601900F1CE4
:101A0000201C7146039302F085FD002002F094FA39
:101A1000204B1B681A6E9E6E029202F079F9051C2B
:101A200002F080F9311C031C2A1C029804F0E0FB30
:101A3000194D00212B680198DA68920007F034F9FB
:101A40002B6800211A69381C920007F02DF904F068
:101A5000B7FBC578061C002D0CD0002002F06CFAF4
:101A60000C4B01981B68391C1A6E5B6E04F0E4FF86
:101A7000013DF0E7F278391C019804F0F3FC281CD2
:101A800002F05AFA201C039902F05CFD05B0F0BD8B
:101A90009519000028000020F4040020F0B58FB054
:101AA00002AF7346B8607960924871463B6002F0BD
:101AB00031FD914B68461A68904D136852689E1C20
:101AC00002325643520076005208311C0133534310
:101AD0000831C908C900401A8546013302AC5B00D1
:101AE000E3187B61864B79691B682868D9609C6024
:101AF000FA6000213C220C3007F0D6F8321C00219D
:101B0000201C07F0D1F82B68B868191C1A6E0C312C
:101B10009B6E0090201C04F0F7FD2B68061C786873
:101B20005A6E191CDB6E00900C31786904F048FD88
:101B30000643F6B23E612E68301C311C48310C3031
:101B400004F0F8FC6F4A2B68126830651020115EB3
:101B5000986B88420EDC1220115ED86B884209DB3C
:101B60001420115E186C884204DC1621525E586CF9
:101B700090421EDA1B7ADBB2002B1AD13B8528215A
:101B80000123CB5504F082F9002812D15B4B1B686E
:101B90001B68FF2B00DDFF23381C2922022128307F
:101BA000D35504F07BF8584802F002FD01F0A6FD81
:101BB000E8E7514E0023BB833368012518689A6813
:101BC000596880233876BA7602205B42013203439B
:101BD00079765200391CFB76A21853230120183164
:101BE0003B7704F013FA336800212022B984D555DD
:101BF00019692222D55521208022C1555242022046
:101C000002432321CA5524206D22C25525210533C4
:101C1000DA7FCB5D7F20D20103401343CB55391CC3
:101C2000281C20317A6904F0F1F9336828221868F9
:101C30002921D0555A682A20CA5599685A1DC1557C
:101C4000D27F2B20C2551B692C212D22CB55D35D71
:101C50007F208343022180220B43524213432D20D5
:101C6000C355FB6800225B19AB40E318391C281CE4
:101C700028310093131C04F0A9F9FEF775FFFEF755
:101C80008FFF002827D11D4D2B68186E02F0A8FA8F
:101C90002B68186D02F092F901F064FF3969002990
:101CA0000DD12B68211C1A1C0C329B6FB86804F0F4
:101CB00033FB2B6878689A6F796904F089FB0220FE
:101CC00001F0AEFD786905F0D3F92868002454309E
:101CD00006F0BEFA00E00224094B00221B6805480A
:101CE0009A60DA60396802F02DFC201CBD460DB008
:101CF000F0BDC0463D1A0000F4040020280000207A
:101D00002C0000207410002010270000F0B52F4D8B
:101D1000714685B0281C744602F0FCFB05F0C8F83B
:101D20002B4EFF303368417A1A1C71321278002929
:101D300002D151B2481C04D100275F60BA421FD1C2
:101D40002BE058685A6F904202DA586801305860A8
:101D5000012922D05B6893421FDB1E4B01271B68C1
:101D60005B7C002B0CD0381C04F07CF80022694608
:101D7000A223101C8A8000920B7104F047F91FE027
:101D800000223B1C02A90E33101C8A8002920B71A8
:101D900004F03CF9336871331F7033681A1C7132D8
:101DA0001278002A03D10C4A1268D27804E0012A82
:101DB00003D1094A126812799A67986F01F0F8FC0A
:101DC000281C211C02F0BEFB05B0F0BDAD1C0000BC
:101DD000280000207010002074100020F0B5744618
:101DE000D1B00D1C05947146041C2648171C02F046
:101DF00091FB04F0F7F9039005F05AF80490201CC9
:101E000005F022F90021E42217A806F04DFF002179
:101E1000402207A806F048FF1B4E17A83268916DB4
:101E2000D36D4832009207AA06F034FA336817A837
:101E3000996D07AADB6D009505F0C6FD211C17A85A
:101E40002A1C3B1C06F01EF83368201C996DDA6DC5
:101E500006F028F9201C291C3A1C05F039F9049BCE
:101E6000084CFF335B7A002B06D1039A1379002BC1
:101E700002D0012001F091FC201C059902F062FBC8
:101E800051B0F0BD7D1D000028000020F8B5264CA3
:101E90007146201C764602F03DFB244B271C1B6834
:101EA0002F331B78002B3AD001F002FB041C01F009
:101EB000F3FA1F4B051CE35C442203701D4BE35CEB
:101EC0004370F2239B00E118463006F0ABFE1A4B3C
:101ED000281CE11844228A3006F0A4FE8A23DB0085
:101EE000281CE1180822D63006F09CFE8B23DB006C
:101EF000281CE1180322E43006F094FE0F4B281C46
:101F0000E1182422F93006F08DFE1E23FF33E81875
:101F10000B4B2422E11806F085FE06F071FD381CFB
:101F2000311C02F00FFBF8BD2D1E000070100020C8
:101F3000C5030000C70300000C0400005B040000A0
:101F40007F04000038B50A4C7146201C754602F02B
:101F5000E1FA06F0DFFC06F0AFFD06F057FD0020C9
:101F600002F0B8F8291C201C02F0ECFA38BDC0467B
:101F7000E51E000070B50E4CAAB07146061C201C70
:101F8000754602F0C7FAA42201A8002106F08CFED3
:101F9000311C01A805F0E4F805F01CF901A805F0D2
:101FA000E3F9201C291C02F0CDFA2AB070BDC0460E
:101FB000151F0000F7B5754601950F4D0E1C071C47
:101FC0007146281C00921C1C02F0A4FA311C381C1B
:101FD000FFF764FD061E03D0201CFFF7CBFF04E0D3
:101FE0000098211C089AFFF7F9FE281C019902F0BD
:101FF000A9FA301CFEBDC046551F0000F0B58FB0D9
:1020000000AF744671465748FC6002F083FA564CA4
:102010006E4622680ACA5943CA1852000832D208CA
:10202000D200B61A514A5B0012685B08301CFB6193
:102030004B00B546D661BE625E08C3181362BE612E
:1020400001F01EFA236838629B687B62827A437AC9
:1020500000205343DBB2FB6201F06EFF444A7E6A0C
:1020600020681568B200524243687A61013B24D36C
:1020700002687C6A990054433961591C0919890026
:102080003960013AF2D33E69AC6E3968A4592E6EBC
:10209000BC607458B96800267E608C4201DD641A09
:1020A0007C60FE69BC6A564379689E19760031539C
:1020B0003C687E69A4193C60E3E72D4BFC6A1D680F
:1020C000FB6A64000133BE695B00FC61FC6A5B4231
:1020D0007B613319BE6A5B00F3187B6200247E6962
:1020E000023CB44216D0696E3A6AF869B961517A15
:1020F0000619F86A06F02AFDBB697600F258C9B2E3
:10210000EE6E89008B597E6AD31ADA43D2171340D8
:102110003353E4E7FEF7BCFD134C3121236832242E
:102120001A7918683026CA55E2555A1D1B69F055B0
:102130003420D27FC3557E235B423521381CCB55DA
:102140003326B96A3030F25503F0DCFC074B00222D
:102150001B680448DA611A62F96802F0F3F9BD46B7
:102160000FB0F0BD9D1F0000F40400202C000020E3
:1021700028000020F0B54E4D8FB000AF7446714678
:10218000281CFC6002F0C6F901F07AF9494C23687A
:102190009E68FE61817A427A00204A43D2B2FA6296
:1021A00044CB724393195B000833DB08DB006946BC
:1021B000C91A414B52001B688D46D961B96251085A
:1021C000B96169468A181A6201F0B6FE3B4B206875
:1021D00019680268FB6976005343760876007B62D3
:1021E000531E8C4671425E43BB6A79619E193E6103
:1021F00000263E60013A1BD343687C6A3D683E6915
:10220000E118AD198900BD60013B08D365462D6E0C
:10221000BE686D585C007C6035530439F4E77E6A13
:10222000FC693D68361B7E627E69AD193D60E1E761
:10223000FD6ABE69F96A214B01316C007519BE6AED
:1022400049006D001868494275190023023B8B4212
:1022500005D0466EE21852009259EA52F6E7FEF7B0
:1022600025FD144C3121236832241A791E6830254B
:10227000CA55E2555A1D1B69EE553426D27FF355D7
:102280007E235B423521381CCB553325B96A30306B
:10229000EA5503F037FC084B00221B680448DA615A
:1022A0001A62F96802F04EF9BD460FB0F0BDC046A3
:1022B00015210000F40400202C000020280000203C
:1022C000F0B593B000AF744671466948FC6002F007
:1022D00021F901F0D5F8674D69462C68A6683E6281
:1022E000827A437A6668206853437043DBB2BB62EC
:1022F0008319DA1D5B00D2080833D200DB08891A83
:10230000DB008D46F862C91A5B4B6A46F86A7E6349
:102310006E468D461B68FE636E467E6216185A62D4
:102320009E62101C0021E26806F0BEFC2269301C8F
:10233000002106F0B9FC514B7C6B1B6862007C33BA
:10234000BC6A1B783E6A6400BB637C61B300BC6AF4
:10235000FE6A5B423B6133197E6A5B005208F318E8
:10236000FA61BB61BD6B002D5AD0002001F0E4FD85
:10237000404B424A1C6816686368013B2ED32268B2
:10238000396A581C5143401880003860013AF4D330
:102390003968306E7D6A4058F9693863514359187D
:1023A0004900495F091AFF2900DDFF21F86BCD4381
:1023B000C0187860786BED1750430D4079680D5464
:1023C000F969786A5143591849008C46396B65465A
:1023D00029523D6838692D183D60D7E7274BBA6A06
:1023E0001D680023023B013A16D37C696E6EE1182A
:1023F000BC6949008859E15E091AFF2900DDFF2107
:10240000FC6AFE6B36193E63CE43F61731403C6BD7
:10241000BE69A154F052E5E7BC6B013CBC63A1E787
:10242000FEF752FC134E4124336842251A7919688D
:102430004020E255EA555A1D1B69C1554420D27F00
:10244000C3557F235B424521381CCB554326F96B8E
:102450004030F25503F056FB074BBC6B1B68044839
:102460005C629C62F96802F06DF8BD4613B0F0BD85
:1024700061220000F40400202C000020280000202D
:10248000F0B593B07546041C0591B54871460795A3
:1024900002F040F803F0A6FE069004F009FD24784F
:1024A000C6230494AF4E9B00002C03D03768002253
:1024B000FA5005E03268D158FE2901DC0131D150D3
:1024C0003368C522049D9200002199548D425DD14C
:1024D000A5495C5C081C002C08D0595C49B2022953
:1024E00000D00121995400221A54B8E1C420800080
:1024F0001C5CC725AD00002C08D001249C54049F0F
:102500009A4A5F541F549F545F51A9E15C59002CB3
:1025100008DD013C012C01D05C5137E0049F032110
:102520005F5198E1924A93491268D2888A422DD02D
:10253000CA218900595A914228D38F4C2068827C45
:10254000C62080001858904220DB10AA11808B49C9
:10255000049F5B5A08A9538002234B70CB7015234C
:102560008F800B71864B01201B68087088700533C3
:10257000D87F4F797F23C0013B40034304984B71C0
:1025800003F044FD22683368D27C5A517A4C2568A6
:10259000287D002800D062E1049F724E002F00D0F9
:1025A0009CE03468774BE35C002B6ED02B1C2C3303
:1025B0001B78002B69D0CD2310979B00E35804981B
:1025C0000393039FCA239B00E25A7B00059FDA53C3
:1025D0002B1C2D331978031C4A00BA180592994216
:1025E0000CD0059F5A00BF1A0222BC4652429444A6
:1025F00067463F880133BC466044F0E706F0B0FA16
:102600001090EA8BCE239B00904202DAE25801320E
:1026100000E00022E2502A1C2E321278E358934246
:1026200025DD7C230AA95B420025CB7016238D8013
:102630000B71534B01241B680C704C708C7005336C
:102640004879DA7F7F23D20103401343281C10AA64
:102650004B7103F0DBFC434BCD221B6892009D5075
:10266000CE2292009D50281C03F006FDF8E02B1CA2
:102670002D331A78039FCD23013A9B00974202DA4B
:102680000137E75001E00022E250C82201359200F4
:10269000EB7FA2589A421ADB00240CA91223201CBB
:1026A000221C8C800C940B7103F0B0FC3368C9229F
:1026B0009200314899580068013199500230C07F2A
:1026C000814204DB9C500221C5228A409954254B4B
:1026D0002D491B6800225A54C82160E03368C72284
:1026E00092009850294A9A5C002A5AD0CA25AD0017
:1026F000595B10AA214F1180DB5B0EA95380022386
:102700004B70CB70192388800B711D4B01251B6802
:102710000D708D700533DB7F7F25DB0105934B79D1
:102720001D40059B2B434B71CA2503F06FFC2268AB
:102730003368AD005C5BD08B1349844228D2DC5BEC
:10274000508D844224D2595C00292AD1C8218900A5
:1027500001325858D27F904223DA0130585020E09D
:1027600021240000280000201303000011030000B2
:1027700074100020FFFF0000701000202A030000EA
:10278000F40400203F030000120300003E03000099
:1027900001225A54C821890000225A50C9218900B7
:1027A0005A50334D334A2B689A5C002A57D1069F02
:1027B0003A79002A51D0C42292009C5C002C4ED160
:1027C0002D4ED8683768798BBA8BFB8A3F8B009780
:1027D00003F0B0FC36682B68718CB28C071CD8688B
:1027E000F38C368D009603F0A5FC2B68CA2292006C
:1027F0009D5A224E2249BD4202DA5A5A82421FDBBA
:102800000AAA15805B5A10A9538002234B70CB7023
:102810000020172388800B711A4B01251B680D704F
:102820008D700533DB7F7F27DB0105934B791F40DC
:10283000059B3B434B7103F0E9FB0D4B1B689D551A
:102840000B4B1B689A5D002A09D0049D002D06D011
:10285000C42201219200995402E008495A540124EB
:102860000948079901F06EFE201C13B0F0BDC04668
:10287000280000203E03000070100020110300001B
:102880002A030000F404002021240000F0B56F4C5E
:10289000724691B07146071C201C039201F03AFE6B
:1028A00006F00AF9051C03F00DFB694BCF221968ED
:1028B00092008A5C061C1C1CEDB2824220D00028CB
:1028C0000CD000226B469A8269463B230B75101C84
:1028D00004A90492032503F099FB0DE006A93C230B
:1028E000321C888006900B7103F090FB594B2268D4
:1028F000D55C6B1E9D41EDB2CF2321689B00CE5469
:1029000003F0EEFA2168CF239B00CA5C061C002A64
:1029100020D1514BC95C81421CD0002809D008A9A4
:102920003923101C8A8008920B71022503F06EFB7C
:102930000DE00AA93A23321C88800A900B7103F03B
:1029400065FB444B2268D55C6B1E9D41EDB223684C
:1029500041495E5403F070FA019003F0A5FA032F89
:1029600003D0019A002A04D108E0019B0126002B24
:1029700043D0002003F068FA01263EE0CF2321680F
:102980009B00CB5A019E0293002B36D1012F02D01F
:10299000022F04D00EE0381C03F062FB0AE002981C
:1029A00003F05EFB22682D49535C002B02D0029895
:1029B00003F062FB03F04EFB264E2268071C935D7A
:1029C0000022834218D0904209D00CA91123101C78
:1029D0008A800C920B71012503F018FB08E00EA908
:1029E00013233A1C88800E900B7103F00FFB3D1CE3
:1029F00023689F55002600E0161C06F05DF8A842EB
:102A000009D0281C06F052F8281C05F0FFFF002012
:102A100001F060FB012603F029FB23680F495B5C92
:102A2000834200D0012603F077FA041C04F040FA38
:102A300028300378A34200D0047003F05FFA034803
:102A4000039901F07FFD301C11B0F0BD2D2800006E
:102A5000280000203E0300003D0300003F0300006B
:102A6000F0B5BBB002AF75463861F9608048714679
:102A700000267D607A61BB6001F04CFDA62320201A
:102A8000391C1C31321C3E84C355301CFE6103F0DE
:102A9000BDFAFFF73BF9301C01F026FA754D764A76
:102AA0002B68CA218900581899189A6EFEF73AFCCB
:102AB0002B68CA2292009A5A3C1C3C3422806E4AEF
:102AC00025219B5A0222CA556380242001232721F5
:102AD000C355CA55262028223E85C355D355674B7A
:102AE00029201B687F213B600533DA7FC35DD2015B
:102AF0000B401343391CC21913700C202431221CC3
:102B000003F084FA5D482C2103682D201A68CA5509
:102B100059689A68C1552E20C255591DC97F1B6935
:102B20002F20C15530213120CB55C35D7F218B43F0
:102B300004210B437F2003403121CB552B68013208
:102B40001B6E92009A18391C009202202C31321C04
:102B5000331C03F03BFA3869F968FEF79FFF051E46
:102B6000B54203D07869FFF705FA61E0201C291C03
:102B7000A42206F099F8424B201C1B6879691C615D
:102B8000BA68FFF72BF9F822D159201CFFF778FC1F
:102B9000201CFEF7A7F8201C04F0E6FB2678684608
:102BA000B3000733DB08DB00C11A8D4602AC3C6181
:102BB000F8607E612C1C3C20C0190319663300218B
:102BC0005B5E002B0DDD7A693C23013A90007A614F
:102BD00061003A69DB1959181018A031042206F077
:102BE00021F8023C231C1433E5D1244B391C1B680B
:102BF00034311C6858689A680C7048708A700533C4
:102C0000DB7F0132CB707E235B424B71194B52004C
:102C10001B680024DB6D0C719A1800923B6903203D
:102C2000321C03F0D3F9164BF9681B688D461C6102
:102C300001F04EF901F038F80E4B1A68C5239B00DD
:102C4000D056FFF723FE041E00D12C1C0D4B1B6831
:102C50001A680D4B9A4202D001F0A0FBFEE704482F
:102C6000796801F06FFC201CBD4639B0F0BDC0464C
:102C7000012A0000280000202A030000F40400209C
:102C80002C00002098100020CDCDCDCDF0B5A5B002
:102C900002AF74467146B862CE48BC6001F03AFC9F
:102CA00000F0EEFB386500F003FC786300F0F4FB05
:102CB000C94B3D6D1C683863E2686E46131C0E33C9
:102CC000DB08DB006D79F61AB54623697D6502AD38
:102CD0003D640E337D6DDB085219DB00F61A131CC0
:102CE000B5460E3302AEDB08BE64DB006E46F61A54
:102CF00053000E33DB08DB00B546F61A02ADB546CD
:102D0000F61AFD6302ADB54602AE0021F86BBE6354
:102D100005F0CAFF7E6DE068012132185200281CC0
:102D2000494205F0C1FFE168B86B72185200AB4927
:102D300005F0BAFF8022D5513D6BE2682B78386CE4
:102D4000002B0ED0BE6A002E0BD0796B05F06AFF07
:102D5000F02522697C6BAD00B86C611905F062FF4B
:102D600055E0002105F0A0FF2269B86C002105F0B4
:102D70009BFFBE6A002E4AD1386CB96C02F07EF916
:102D800000253C6D7020FD66C553A3796C26F35574
:102D900063796F226D206E21C355CB55D35D7F269D
:102DA0000124B343802023434042D11903430B70D5
:102DB00070221D23391CD35508203A6C6C3103F066
:102DC00025F9391C74317D678D803D6D0C70EB7970
:102DD0008C704B70CB788020B3431C431E230B7147
:102DE0007D4B40421B680443CC7005334A79DB7F3E
:102DF0001640DB011E43BA6C08204E7103F006F941
:102E00007448B96801F09EFBBD4623B0F0BD7C6DEF
:102E1000402563005B4200263B62FD62FE64B96CA4
:102E2000386C02F02BF9032001F086F86A4E00217D
:102E3000336860201C68C15358685C225D25D455F6
:102E4000E8559A6804255F23DD5560245123E35536
:102E5000634C5E212368CA551B6E01329200391CF7
:102E60009A1802205C3103F0D1F801226423DA556C
:102E7000002133686820C15366211869CA5567224A
:102E8000D55565265A226825F055EA556926053339
:102E9000F15DDA7F7F23D2010B401343F0190370F9
:102EA0002368391C5A6E0220643103F0AFF83C6D80
:102EB0007E6DA5797300013D6B43BC6BE3187B64A9
:102EC000331C6B437E6BFC6BF618FE613E6CE418A2
:102ED000F3187C61FB600026681C40D0F9697A69B0
:102EE000FB68386D7118B218F3184479B9613A610A
:102EF0007B62013C2BD3786C6300C25A394B9A42F7
:102F0000F7D0F96BBA6B842380207960DA51F967C6
:102F1000C01969460CC80CC1291C7B68386C221C7E
:102F2000FEF792F8002803D0FB6C01339BB2FB64E0
:102F3000386B396902780B5D002A05D0B869796A67
:102F4000025D9B180B55D4E77A6A1355D1E77C6C68
:102F5000386A013D24187C647C6D361BBCE73D6DEE
:102F6000EC79013C661C3FD03E6D7B6DB179BD6B49
:102F70004B43E3185B005A5B1A4B9A42F1D0FB6B50
:102F800084263A1CFB67F5518032684660CA60C0EF
:102F9000221CB86CFEF758F8002803D0FB6C0133F4
:102FA0009BB2FB643D6B3E6D2978B279FD6B7E6D03
:102FB0002B197243002908D07D6BF0262919B60021
:102FC00089199A5C0B78D31800E09B5CBD6C2B557B
:102FD000C7E7C0462D2C0000F4040020FFFF0000CE
:102FE00028000020FEFF0000154BFC6C1B68DA680F
:102FF0001B69D3189C4206DAFB6A013BDBB2FB6219
:10300000002B00D00BE7BD6A022D00D0B4E63E6D68
:103010007C6DB3793D6C591E61436918013B00D248
:10302000AAE63E6D7279013A07D33C6BE018F9309D
:103030000478885C20188854F5E77D6D491BEDE71E
:10304000F4040020F0B599B000AF75467146914880
:103050003D6001F05FFA904C092123688F4E1A1CE5
:103060006D3212784A43191C6B3109789B795218DA
:103070009B09D318FB6200F003FA236800201A1C96
:103080006F329B7912789B09D318BB6201F0C4FFA1
:10309000B5446D46A2B0FD616D46A2B0BD610A2681
:1030A0006D467D617E637D6BF86A05217A6BADB2FA
:1030B0003D610F2602F0C8FAB86A05217A6B02F06A
:1030C000C3FA3E633D6BF86A05213A6BADB27D6091
:1030D000002602F0C7FAB86A05213A6B02F0C2FA7C
:1030E000FE63FD6B05200026684302F0DBFABE6339
:1030F0007E623E62684E0223306805210370F86AE2
:1031000000F020FF664A0A211268664D92682B681B
:1031100051431A6E06318B00D45AF969BA6B7B6A37
:103120008C5224B21B197B62336801221A70B86A70
:10313000052100F007FF2B68BE6B9B6E3D6A5B6943
:103140000236E41A2D1980233D62BE639B009E4225
:10315000D0D12B12FE6B7D690021AB537D6A00221A
:1031600000232C12FE69705A0231001B404300B24A
:10317000B860C017F8608020BD68FE6880005219F2
:1031800073418142EED1FE6B1B06120ABD697100CC
:103190001A4302366A50FE63082EA2D13D694026CA
:1031A000F5537D684226F55300244C26F4534A23F8
:1031B0000126DE55802302255B422B434820384DF3
:1031C000C6554B20C3552B6802224921CA550533E9
:1031D0004D21DA7FCB5D7F20D20103401343CB55D5
:1031E0003A1C391C201C4831403202F00FFF50239A
:1031F000DE55042151208023C1555B420220034348
:103200005321CB5554222B68D4535222D6555520E6
:103210000533DA7FC35D7F21D2010B401343391C94
:10322000C2191370201C50317A6902F0EFFE5C2342
:10323000DC5358205A23C655DE5580262B680422BD
:10324000592104207642CA5506435B21CE555D259F
:103250000533DA7FEB5D7F26D20133401343E81953
:10326000391C03705831201CBA6902F0CFFE3D6B47
:1032700003353D63422D00D024E77E6B01367E632B
:10328000102E00D00FE70348396801F05BF9BD4606
:1032900019B0F0BDE52F00007C030020F8FBFFFF14
:1032A000F404002028000020F0B58DB000AF744673
:1032B00071466348BC6001F02DF900F0EDF8614DF6
:1032C000061C2C6869462268A068D31DDB08DB0059
:1032D000C91A7861C81AB9618D4685466B460021C6
:1032E000B8693B6105F0E0FC22681E24FF34341904
:1032F0000021684605F0D8FCB9692422FC60201C36
:10330000002405F08FFC201C347000F0E3FE012047
:10331000FFF7BCFC201C00F00FFE2A684A495368E6
:103320000968BC61013B0AD37C69106860431818C6
:103330000C6E013080000059BC692418F1E720248C
:10334000013C51D3211C2422F86805F0ADFC00207B
:1033500000F0C0FE0120FFF799FC002000F0ECFD1A
:1033600001232021CB5521222221CB55D3557C236B
:10337000344D5B422322D35500207D232421B88481
:10338000CB552B68BC620533DA7F2523D95D7F23BB
:10339000D2010B4013432521CB553A1C391C28324E
:1033A000203102F033FE2D68274A2B6816687A69AF
:1033B000013B5A439446013BC2D3686800217860C0
:1033C000604480007A68013A7A6004D3326E125801
:1033D00004388918F6E7B869814201DA3969CC54B2
:1033E00078696246121AE5E7164A0020012328216F
:1033F000B862CB551168B8850C682922D4552A22A9
:10340000D3552B22D45D7F22944323432B24E355B1
:10341000AC232C24E35505312D24CB7FE15DDB016A
:103420000A401A43E1190A70391C3A69283102F03E
:10343000EDFD0348B96801F085F8BD460DB0F0BD5B
:1034400049320000F404002028000020014B1868D5
:103450007047C04670030020014B58687047C04653
:1034600070030020014B98687047C046700300202D
:1034700070470000014B18607047C0468010002064
:10348000014B18687047C04680100020014B18603F
:103490007047C0467C100020014B18687047C0463A
:1034A0007C100020014B18607047C0467810002047
:1034B000014B18687047C04678100020014B18680F
:1034C0007047C0467C03002010B50D4B00201B78D0
:1034D000AA2B12D10B4B1C780B4B64B218780B4BF8
:1034E00040B219780A4B20181A780A4B49B21B7857
:1034F00040188018C01A43425841C0B210BDC0469F
:10350000500002005100020052000200530002006D
:1035100054000200550002008023DB0200221880C4
:1035200059809A80C046024B188880B27047C046C6
:10353000060004002E4B70B51968A026F605F1317F
:103540002C48042205F06EFBF468F5680F23240C68
:103550001C401D40FFF7B8FF002813D0264E8820DE
:1035600031781E34C9B205F0FBFA31784443C9B250
:10357000882005F0F5FA0F3545431E3C00220F3D2B
:10358000944203DB221E0F2A00DD0F220F21281E8A
:10359000884200DD081CA023DB05DC681140174AC7
:1035A000090422400A43DA60C243D968D2171040A6
:1035B0000F22914310400843D860D96880225200FE
:1035C0000A43DA60D9688022D2000A43DA60D968F7
:1035D000802292000A43DA60D968802292010A436D
:1035E000DA60DA68F0218A4380210A43DA6070BD2C
:1035F0007C1000200C00005054000200FFFFF0FF80
:1036000082B00022019201AB55221A703922524237
:103610009A700122DA70019AA023DB059A6102B048
:103620007047A023DB059869C001C00F70470122D5
:10363000A023DB05104002060249986908401043A8
:1036400098617047FFFFFFFE82B0002201920122C5
:103650000A40891801303F2201AB1040C9B21870EE
:10366000481C023102408900D9705A70019AA02387
:10367000DB05DA61196A024A0A401A6202B0704731
:10368000FFCFFFFF70B5A023DB0500229A63DA6B42
:103690000C26920E9206DA63164ADC8D106803221D
:1036A000011C5D310D78944315402C43DC850D7869
:1036B000DC8D1540AD00B4432C43DC85047A0878DA
:1036C0001040002C03D00001DA8D302402E0DA8DA6
:1036D0008001C024A2430243DA850978A023DB05D8
:1036E0000322D88D1140044A090202400A43DA85B8
:1036F00070BDC04680100020FFFCFFFF0002064B9B
:10370000000A0138002258609A6005221A60C046FB
:103710001A68D103FCD5704710E000E0084B094A55
:103720001B681078197A084B002901D0042100E0A9
:103730000821884310701A78114319707047C046E9
:10374000801000202800005029000050064B1B6804
:103750001A7A064B002A02D01A78042101E01A785E
:1037600008218A431A7070478010002029000050F9
:10377000054B1B681A7A054B1878002A01D04007C0
:1037800000E00007C00F70478010002029000050A3
:10379000A0230122DB055A707047044B82B00190D0
:1037A00001AA188092789A7002B0704724000050E5
:1037B00007B500F0DFFE064B019001AA1880927851
:1037C0009A70044B00221A70034B0122DA7707BD6E
:1037D00024000050000000200800005007B500F051
:1037E000E7FE064B019001AA188092789A70044B6C
:1037F00000221A70034B0122DA7707BD2400005023
:103800000000002008000050034B00221A70034BF8
:103810000122DA777047C0460000002008000050FF
:1038200072B6084B1B5C002B03D1C04662B630BF9A
:10383000F6E762B6A023DB059968034A0A409A605E
:103840007047C04600000020FFFFF9FFA023DB0502
:103850005A680121120E58689143034A0906024032
:103860000A435A607047C046FFFFFFFE08B5074B8A
:103870001B681A1CE5321278E6331B7852000132BD
:103880005043994005F06CF908BDC0467C100020FB
:1038900008B5044B1B68E833197849000131FFF77C
:1038A000E5FF08BD7C10002008B5A0230120DB0542
:1038B0005870FFF7B5FFFFF7C9FF08BDF0B585B039
:1038C000041C494D03AE04280BD12968221C019128
:1038D000301CCE3105F0A6F901994448D231221CA2
:1038E0000BE02B680422191CD631301C019305F023
:1038F00099F901993D48DA31042205F093F9A023A2
:10390000DB05586931780006800F1F220230400124
:10391000114001433170039919611E691640FFF788
:10392000D3FD00280AD0324B882019780436C9B25A
:1039300005F016F946430023043E03D4331E1F2B23
:1039400000DD1F23A022D205108A1F210B408843CF
:1039500003431382022C16D007DC002C13D0012C59
:1039600018D12B681F1CE73714E0042C07D00EDB9E
:10397000052C0FD12B6800241F1CE1370AE02B68AF
:103980001F1CDE3706E02B681F1CE43702E02B68A3
:103990001F1CEA37A023DB05596938783F22104005
:1039A00091430143596178781F215D6908401149AD
:1039B000C0022940014359610F49640009680C198C
:1039C000211C7731087859681040914301435960B0
:1039D0007834217858680A401102084A02400A43A4
:1039E0005A6005B0F0BDC0467C10002014000050A5
:1039F00054000200FF07FFFF7C030020FFC0FFFF11
:103A00002E4BF0B51A682E4B85B01B68E7331B7838
:103A10005B069B0E0193931DD97F00238D005519E2
:103A2000581E5B18002B27D053181B1826331B7801
:103A30008024D3185E78A023DB055F68E4033C4351
:103A40005C60019CB606240400945F68B60EBC4618
:103A50001C4F64462740009C27435F60C0462436C5
:103A600076008400F65A2C19883426605E68164C5D
:103A700034405C60031CD3E76F460293BB81012393
:103A80003B72911DC97FBB727972F97A7F2399438A
:103A900004200143F972B02139730C49787B09681D
:103AA00003400531C97F8832C9010B430F2002A9A9
:103AB0007B7302F0ABFA05B0F0BDC0467C0300207A
:103AC0007C100020FFFFC0FFFFFFBFFFF4040020B9
:103AD000F0B585B0FFF794FF1A4B00241D68AB1DAD
:103AE000DE7FB300EB1801930134331B013309D09F
:103AF000019AA700D71B883738680121FFF7B6FE67
:103B00003860F1E76A4600239381012313729372B0
:103B10000423D372B02313730B4B56721B680F2010
:103B20000533DA7F6B46597B7F23D2010B40134369
:103B30006A4653732A1C883202A902F067FA05B05C
:103B4000F0BDC0467C030020F4040020044B00229A
:103B50005A70A023DB055A7001221A707047C046C4
:103B600000000020A023DB059968064A0A40802156
:103B700089020A439A60044A0021917001229A70D6
:103B80007047C046FFFFF9FF00000020024B1B6892
:103B90000833D86F7047C0467C030020024B1B6877
:103BA0000833D8677047C0467C030020A023DB059C
:103BB0009868C0B2704730B5A023DB059B68DBB2C4
:103BC00083420ED001DA013300E0013BA022D2058E
:103BD0009568FF211C1C8D430C40291C21439160DA
:103BE000EEE730BDA023DB059968802252020A432C
:103BF0009A609968094A0A409A609A681201120903
:103C00009A60D968064A0A40DA60D968054A0A40CB
:103C1000DA60D968044A0A40DA607047FFFFFFF0B3
:103C2000FFFEFFFFFFDFFFFFFFFFFFEF1B4B10B5A6
:103C30001A680121131CEF331878A023DB059C6858
:103C4000084017490004214001439960F032107880
:103C50009C681449000700092140014399601178CC
:103C60009A6809091201090712090A439A60D9687A
:103C7000802252000A43DA60D968802292010A4306
:103C8000DA60D968802252050A43DA60C923013B11
:103C9000002B01D0C046FAE710BDC0467C100020C2
:103CA000FFFFFEFFFFFFFFF010B5A024E405A368AF
:103CB00000201B011B09A360E268124B1340E36064
:103CC000E268114B1340E360FFF7AAFD0F4B1B683E
:103CD000F0331A78A36812091B0112071B0913435A
:103CE000A360E26880235B001343E360E268802303
:103CF0009B011343E360C923013B002B01D0C04665
:103D0000FAE710BDFFFEFFFFFFDFFFFF7C10002082
:103D1000034B1B68E5331878400001307047C046FC
:103D20007C100020024B1B68E63318787047C046B1
:103D30007C10002000487047001000500048704779
:103D4000002000500048704700400050074B012001
:103D50001B685B799A1C0340D318054A12686632C7
:103D600010785843034B8000C01870478010002023
:103D70007C03002004400050F7B51B4B051C1C6859
:103D8000A3795F1E15D36279013A10D36079561C6E
:103D9000811C0191012108400199081858433118EC
:103DA0001248890009180868E8400860ECE73B1CE5
:103DB000E7E7FFF7CBFFA37A002201339C46634677
:103DC000013B9C460FD3617A96000191861900232E
:103DD0000199994205D09F00F1590133E940F15111
:103DE000F6E75218EBE7F7BD8010002000400050C6
:103DF000074B01201B685B799A1C0340D318054AC6
:103E00001268723210785843034B8000C018704714
:103E1000801000207C03002004400050F7B5284BA0
:103E20001D682A7853B2042B1ED1264B1B68E03341
:103E30001F78254B196802235E1E3FD34A79013A49
:103E400010D34C79551CA01C01900120044001980E
:103E500004195C4328191D4C800000190468FC40BB
:103E60000460ECE7331CE7E7002A27D0022B03D1DC
:103E7000144B1B68E6331EE0032B03D1114B1B6868
:103E8000EC3318E0012B11D1FFF7B2FF0E4B061CEB
:103E90001B685C79013C11D32B193A331B789B00CA
:103EA0009859FFF7F5FCA300F050F3E7052B05D177
:103EB000044B1B68E3331878FFF75EFFF7BDC0467D
:103EC0007C0300207C100020801000200040005067
:103ED00008B5A0230120DB055870FFF7A1FCFFF710
:103EE000B5FCFFF79BFF08BD70B5041C104E114DCB
:103EF00011D10120FFF7E2FC336801221A70A023E0
:103F0000DB056C705C701A70FFF7E2FFFFF79EFC38
:103F1000FFF7DEFD0224201CFFF7D0FC33680022EF
:103F20001C70A023DB056A705A7001221A7070BDE4
:103F30007C0300200000002008B5FFF7D5FFFFF745
:103F4000C7FF08BD08B5A023DB05011C58683F2248
:103F50001140904308435860596858681140013136
:103F60000A401102064A02400A4306495A600022EA
:103F70004A705A7001221A70FFF7AAFF08BDC046A6
:103F8000FFC0FFFF00000020094B01211A68537990
:103F9000D0799A1C0B40D318064A013012686A3255
:103FA00012785343C018044B8000C0187047C046B5
:103FB000801000207C0300200040005010B5A0239A
:103FC000DB051C6A0005064A000D010422400A4375
:103FD0001A621A6A120B12031043186210BDC0460F
:103FE000FFFF00F0164B13B51C68A023ED34211C15
:103FF000DB05144804229B6804F014FE2478FFF7C4
:1040000063FA00280CD0104B104A1B781278201C41
:1040100052B200925BB21021D12202F08BF8241828
:10402000002C01DA002402E0FF2C00DDFF24084B05
:10403000E0B21B680833DC67FFF7BDFD13BDC04667
:104040007C100020080000505300020052000200C3
:104050007C03002008B5FFF7C5FFFFF76BFAFFF7F9
:10406000CFFA184BC0229200985817490140995036
:104070009958FF2081434020014399509858134993
:10408000014080200004014399509858802100028B
:10409000000A09060143995002221A6001221A609F
:1040A000082104221A601960FC3300215960084B72
:1040B00019690A431A61FFF7E5FA62B600F0A0FA3F
:1040C00008BDC04600E100E0FF00FFFFFFFF00FF6A
:1040D00000ED00E008B5002801D0012801D100F072
:1040E0008FFAFFF77FFFFFF725FAFFF789FA08BD80
:1040F000F0B5274B13211B680224DA7A0023133A08
:10410000D2B291425B41E41AA023DB0558693F22F9
:10411000596810408022D2030A43A3B05A60411E5E
:10412000A023C9B2DB0502AAFF2910D05F683F2691
:10413000184D0E4036043D4035435D60C046251C99
:1041400024356D005D5B4B00D5520139E8E75C68B2
:10415000114921405960694600238B8001230B706F
:104160008B700223CB70B3230B710C4B48701B6810
:104170000533D97F6B4658797F23C90103400B4330
:10418000032069464B7101F041FF23B0F0BDC046EA
:1041900080100020FFFFC0FFFFFFBFFFF4040020DE
:1041A00010B5A020C00544694906E401E409214393
:1041B00041617F210A4044699104074A22400A4331
:1041C0000649426100224A70427001220270002BAF
:1041D00001D0FFF77DFE10BDFFFF03FE00000020B1
:1041E000F7B5041C02F052FE124B1A680023506807
:1041F000411C0191019D16689D420CDB97680136B8
:104200007E4399008C469E1900216546B600615197
:1042100001333151EEE701239E420ADB956800210C
:104220005D43AF002D180135AD00395101332951DF
:10423000F2E7F7BDF4040020044B054900221A60A0
:1042400059609A6005221A607047C04610E000E08D
:10425000FFFFFF0010B5A023DB059C689968E623EB
:10426000C943C9B25943E403E40F064B0134A040EB
:10427000C918041C044804F073FC011C201C04F041
:104280006FFC10BD5C5D000040420F0030B5124D68
:104290001248AB6885B0C01A0193FFF7DBFF02A993
:1042A00001230B704B708B7004230024CB706F23A1
:1042B0008C800B710A4B01901B6848790533DA7FBB
:1042C0007F23D20103401343201C01AA4B7101F04C
:1042D0009DFE2C6005B030BD10E000E0FFFFFF0048
:1042E000F4040020A023DB05D87CC0B270478023F3
:1042F000DB0500BA09BAD8601961704737B5051CEB
:104300000424291C221C684604F08CFC2919221C58
:1043100001A804F087FC009980230ABADB05DA6063
:1043200001990ABA1A6137BD40BA80B2704700BA23
:1043300070470023114A12499A188A4204D211493F
:10434000C95804331160F5E70F4B104A191D043B9F
:10435000934203D200221A600B1CF6E70C4B0D4A65
:104360001360EFF308820433191D043B9A4203D90A
:10437000094818600B1CF7E77047C046280000206A
:1043800014060020F48D0000180600207010002094
:10439000BC10002098100020CDCDCDCDF0B5394D0A
:1043A0008BB039482C6800F003F9FFF7A7F9002615
:1043B00036498C422ED2354B202780331B1B832B52
:1043C00000DC9F1004A901230B708B70CB70304B65
:1043D00000201B6888804F700533DA7F7F23D2016D
:1043E00001924A79BF101340019A1343221C4B716A
:1043F00001F00CFE231C3A1C013A08D3002E04D114
:1044000024491868884200D01E1C0433F4E7BF001A
:10441000E419CDE72B681E4FF31A06A90393002574
:10442000A7238D800B713B68012404220C704C7013
:104430008C70CA700533DA7F4B797F20D20103403C
:104440001343281C03AA4B7101F0E0FD0F4B08A990
:1044500084339E1BA8238D800B713B680422039636
:104460000C704C708C70CA700533DA7F4B797F20EA
:10447000D20103401343281C03AA4B7101F0C6FD6F
:104480000BB0F0BD98100020801A06008037002085
:10449000F4040020CDCDCDCD024B1B680633D87F70
:1044A0007047C0467C03002070B5051CFFF7A0FCD8
:1044B0000A4B1C68A31DDB7F9A00AD180022511E19
:1044C000D218002A09D0E218521826321278920027
:1044D00016588A00AE500A1CF1E770BD7C0300201C
:1044E00030B50B4B1B689A1DD27F94001C195300EA
:1044F000C01800230133D11A013107D09D00651B7C
:10450000883559002D6849424552F3E730BDC04611
:104510007C03002070B5051CFEF7A4FF0468061C90
:10452000013C08D37268E300D3181A68AA42F7D195
:104530005B689847F4E7024B013D1D6070BDC046C3
:104540008410002070B5051CFEF78CFF8468061CE3
:10455000013C08D3F268E300D3181A68AA42F7D1E5
:104560005B689847F4E7024B013D1D6070BDC04693
:104570008410002038B5A023DB0599689D68C943E5
:10458000E623C9B25943084B041CC918074804F074
:10459000E7FA064BED035843ED0F01352841211C86
:1045A00004F0DEFA38BDC0465C5D000040420F00FA
:1045B00038B5A023DB0599689C68C943E623C9B2D6
:1045C0005943064B051CC918054804F0C9FA68434D
:1045D000E403E40F0134204138BDC0465C5D0000B7
:1045E00040420F00002801D0133907E0122902DDF4
:1045F000262902DD1239491000E000E0081C70474E
:10460000F0B5E34BB3B01B680193DC79002C00D10B
:1046100089E153331B780021133BDBB21322081CC2
:104620009A424841C4B2049402260BAC361A1422B2
:10463000201C04F039FB019D6F7A01982B1ABB42B4
:1046400011DA2B1C533319780498FFF7CBFF13288A
:1046500001D900F0FDFB235C0135B34200DBF7E339
:1046600001332354E9E7CB4B00251B68291C039336
:1046700063331D70039B882266331D7010A804F0FD
:1046800013FB291C1422201C04F00EFBC24B10A8A3
:10469000196844228A3104F0C5FA022E04D121A8F7
:1046A00010A9442204F0BEFA0025019C0295019D48
:1046B0006B7A671B01349F4234DA231C52331D7816
:1046C0000498291CFFF78EFF0BAA115C6E118C4613
:1046D0000596112166467143059E10AB89191F2668
:1046E0003540063101268900AE40351CCE58354391
:1046F000CD50039D3F23E919061C1E4058310596F5
:104700008F796646B501059E9F433E431E40634632
:104710000133029F2E43DBB28E7113549F42C6DADF
:104720000293C4E7039B029E0027F6B26533059609
:104730001E70039701970497954B049E1B689A7A05
:10474000964200DBA1E0049C1A195832117801222C
:10475000081C2038151C82408D409001029CAC46FC
:104760008009002C18D0013C4422624310AD002681
:104770005655AA18151C1F2905DC576A664616628D
:10478000BA0E920606E016626F6A8201BE0E9209A8
:10479000B60632436A62E4E75A7A7E4B1968231CF4
:1047A000934210DAC818583085794426A806AD0916
:1047B0007543039F800E2818013710ADFF18281885
:1047C00007710133ECE7744B039E1B68B6181A1C83
:1047D0008C328B3317781D78FF06AD060396FF0EDB
:1047E000AD0EFEF771FE002813D06C4E8820317894
:1047F0000137C9B204F0B4F931784743C9B288200F
:1048000004F0AEF902354543013F023D0026781C15
:1048100003D03E1E1F2E00DD1F263F2D01DD3F254C
:1048200002E0EB43DB171D40019944274F435C4AEC
:10483000BF1802998C421EDA4422111C614310AB4E
:104840005918301C1F23184006908878013498436B
:10485000031C069803438B70281C3F2318400690C6
:1048600048789843031C069803434B70381C04F0A7
:10487000D9F94437DDE7CB43019C049DDB170B409E
:10488000E41801350194049556E7424A019F1468E3
:10489000FAB2211C64310A70CA70059D00228A7127
:1048A00005310D70597A131C10AA8B420FDAE018EB
:1048B000583085794426A806AD097543039F800EBC
:1048C00028180137FF18121817710133ECE7019F00
:1048D00044237B439A1A1CAE03920025029FBD42DB
:1048E00018DA44276F4310A8C719786A0021820E8E
:1048F000920639627A62301C142204F0D5F90399C9
:10490000284A013588188019391C442204F08AF994
:104910004436E3E7FB43DB17019D3B40EB1868346B
:10492000029323700DE01B4D211C28680422633084
:1049300004F0BAF92868211C6730042204F0B4F9A5
:104940000294134B00211C681322E37A0E1C133BC4
:10495000DBB29A424E41F7B204970BA80227142209
:10496000BF1B04F0A1F96679251C2B1BB3421BDA8F
:10497000E97A0498FFF736FE132800D968E20BABFA
:104980001A5C0135BA4200DB62E201321A54ECE7EC
:10499000801000207C0300207C10002054000200C6
:1049A00000800050D07F0050B94B029D1E6801224C
:1049B000331C6B33DA701D700021882210A804F0BC
:1049C00073F9002114220BA804F06EF9B14B10A862
:1049D00019684422463104F025F9022F04D121A898
:1049E00010A9442204F01EF90027251C03972F1B51
:1049F0000597637901359F423CDAAF7A0498391CF8
:104A0000FFF7F0FD0BA9095C10AB0191019A44215D
:104A10005143091859182A1B0A7179110BAA0691DA
:104A2000115C11225143069A89188A1D1F210F40DB
:104A300001219200B9400F1CD1580F43D750059F58
:104A40003F23F219011C019F19400591BF015178C4
:104A50000697059F99430F4306991F40019B0F43FB
:104A600057700133039FDBB20BAA13549F42BEDA87
:104A70000393BCE7039C6D36E4B2012505943470C2
:104A80000195854A019B1668013BB279934200DB90
:104A9000ADE0F2182832D1797E4A12685778BC46C8
:104AA000002F04D0019C36192836F6790796012488
:104AB000251C8D400695079D271C081C2038261CA8
:104AC000AF40203DAC408640B0010994039C800972
:104AD0000897002C32D0013C44266643019F10AD5C
:104AE0007755AE19351C0027203537626F68BF0E29
:104AF000BF0600976F601F2902DC069D356204E047
:104B00008601009FB60937436F606646002EE0D0ED
:104B100044266643079F10ADAE191F2F04DC376A89
:104B2000089D3D433562D4E7756A099F2F43BF0155
:104B3000AD0EBF09AD063D437562CAE7D3184732D3
:104B40001578FF33AD069E7FAD0EFEF7BDFC002845
:104B500012D0524F882039780136C9B204F000F8DB
:104B600039784643C9B2882003F0FAFF023545433D
:104B7000013E023D771C03D0341E1F2C00DD1F2494
:104B80003F2D01DD3F2502E0EB43DB171D40029E78
:104B9000029F069644267E4341483618029F069897
:104BA000391A039FB9421EDA4422514310AB5918F7
:104BB0008F781F239F43201C18403B1C03434F78D2
:104BC0008B703F239F43281C18403B1C029F0343CC
:104BD0004B703B2F00DD3BE1301C013704F022F825
:104BE00044360297DAE7019C0134019449E7284FE3
:104BF000029D3C68EBB2221C6C32019D1370D37095
:104C0000231CEDB272331D700195059D013B1D7093
:104C10000BA80021142204F047F80025A31DDD771E
:104C200073799D423EDA7319DF7A0498391CFFF7D5
:104C3000D9FC0BAB1B5C0393002B0BD1A31DD97FBD
:104C40004A1C6118DA770731EBB210AACB7701332F
:104C500011180B7110AB1A181279611994460122C0
:104C60005242944462463A310A7079111F22174029
:104C70000631012294468900BA40171CCA5865447F
:104C80001743039ACF5062440BAB1A54C8E7C0468F
:104C90007C0300207C1000208010002054000200C3
:104CA00000800050D74B1B6847331C78A406A40E25
:104CB000FEF70AFC00280AD0D34B8820197802346A
:104CC000C9B203F04DFF44430023023C03D4231E2A
:104CD0003F2B00DD3F2310ACA2781F218A4361786F
:104CE000A2703F229143666A1340019D0B4363709B
:104CF000B30E25709B06002563621CA8291C142294
:104D0000256203F0D1FF029F3B2F00DDA0E044208D
:104D10007843BE49442240180137211C03F082FF2A
:104D20000297BB4F02983E68C7B2331C70331F70A6
:104D30000D3B1B78321C7732311C137057706F316A
:104D400009780B3A5173311C7B3197730B701278D1
:104D5000331C7C33301C1A707D30022203F062FF5A
:104D6000AC4B13221B68291C0193DB7A201C133BDC
:104D7000DBB29A426941CAB207920222521A331C2C
:104D8000733303920122DA701F70291C882203F00A
:104D90008BFF291C14220BA803F086FF994B201CC3
:104DA00019684422023103F03DFF039D022D04D116
:104DB00021A8211C442203F035FF019C0027039702
:104DC000019F019DE71B04976B7901349F4238DAFC
:104DD000A57A0798291CFFF705FC0BA90F5C442155
:104DE0007943019A10AB09185918A21A0A7169116E
:104DF0000BAA0591115C11225143059A89188A1D4D
:104E00001F210D4001219200A9400D1CD1580D43D6
:104E1000D550049D3F2372195178051C99438C4647
:104E2000B9011D40049161460D431D40049B0137AB
:104E30001D435570FFB20BAD2F54039DBD42BFDA29
:104E4000BDE7331C039E753300271E70019701E0F8
:104E50000020D4E0039A002A14D0013A442151439F
:104E600010A84118CE6A00204D6A08628862B00E10
:104E70008006CB78AC0EC8622020A40603434C62A7
:104E8000CB70E8E7634B019A1F68B879BC46049081
:104E9000019C049D131BAB4247DA019C61460B1B2E
:104EA0009B182F33187851100123061C1940203EFF
:104EB0001F1CE5B20591B3400399079587401E1C5E
:104EC000002930D0013944234B43019C10AD0134FB
:104ED0005C55079CEB18059D64B20694AC420FD05C
:104EE0001F2803DC1C6A3C431C62E9E75C6A251C42
:104EF0003543AD01A40EAD09A4062C435C62DFE787
:104F00001F2803DC9C6A3C439C62D9E71C1CDB6ABB
:104F100033439B019B090693E36A9D0E069BAD06F6
:104F20002B43E362CCE70132B2E7364B1B685A19D8
:104F3000DD78FF32AD06977FAD0EFEF7C5FA00288B
:104F400013D0314C882021780137C9B203F008FE14
:104F500021784743C9B2882003F002FE0235454359
:104F6000013F023D00247E1C03D03C1E1F2C00DDAF
:104F70001F243F263F2D02DCEE43F6172E40029FF2
:104F800044257D43214804972D18029F0498391A1F
:104F9000039FB9421FDA4422514310AB59188F784E
:104FA0001F239F43201C18403B1C03434F788B70EA
:104FB0003F239F43301C18403B1C029F03434B7010
:104FC0003C2F00D144E7281C03F02CFE029F4435FF
:104FD00001370297D9E7019C01340194022C00D0DB
:104FE00038E70B4B029D1B68EAB2191C7431181C80
:104FF0000A70733000788033C8721A70012033B0A1
:10500000F0BDC0467C10002054000200008000501B
:105010007C03002080100020F8B5164D061C2B687C
:10502000002463331F782B68E1191A1C643212784C
:105030000134914209DAE319442058430E4B311CE4
:10504000C018142203F030FEEDE76B331F78002404
:105050002B68E2196C331B7801349A4209DAE319A0
:1050600044205843044B311CC018142203F01CFE8A
:10507000EEE7F8BD7C030020EC7F0050F0B5374B25
:1050800085B01B6802901A1C039163321578344A6C
:1050900000201168041C8A7A94422BDA021C4F7A91
:1050A000161ABE421FDA9E195836B679B70900960D
:1050B000EF1944267E432B4FB4463E1C009F6644A6
:1050C0000196BE06039FB60EB446BE5C3F2E00DDC1
:1050D0003F26F6B20096019E0132371C6744009EBF
:1050E00030373E70DBE7181C6530007801342D182E
:1050F000101CD0E71A1C6B32147800208A79904279
:1051000029DA00224D790195AA421EDA9E18767896
:10511000B709E719039744273D1C039FB6067D4353
:10512000AC46104DB60E2F1C019D674445430397B6
:10513000029FBF187D5D3F2D00DD3F25039FEDB22F
:10514000BE19303635700132DCE71A1C6D32127828
:105150000130A418D2E705B0F0BDC0467C030020A2
:105160008010002000800050F0B5B34B97B01C6851
:105170006846A379627900AF5A43131C0E33DB08EB
:10518000DB00C01A93000E33DB08DB008546C01A33
:105190006D4685467D626D46BD61E3792F26191CFB
:1051A0000E319B00C9080E33C900DB08401ADB0032
:1051B0008546C01A6D4685463D6200216D46786A77
:1051C0003D6103F071FDA379627900215A43B8690A
:1051D000920003F069FDE2790021386A03F064FD72
:1051E000E27938699200002103F05EFD0023F35557
:1051F0002F26F05D904E3E2800D9E1E0FFF70CFF2E
:105200000020FEF799FE2F21C95D3068F961002268
:1052100083799A4235DA00234179541C8B422EDA85
:10522000161C4E439E198D1C7E610126AC463140F2
:10523000614461438919C9188D008049BE696D18A0
:105240002D68BD607D69AD00A959BD68A94214D221
:10525000FD697E6A79697554417901258E1C0D407E
:1052600075196C4351430134E418744EA400A41919
:1052700024685918BD6989004C510133CCE7221CC0
:10528000C6E7FEF763FD6C4B2F261B68F65D002218
:10529000F8617B607E61BA607D68BE68AB7A9E42D1
:1052A0001CDA3E6994003519FE69111C341900237B
:1052B00078685A18407A83420CDA9A00A858A6589F
:1052C000B04205D23E6A78697618F054A658AE50BE
:1052D0000133EDE7B9680131B960DDE70125302020
:1052E000C5555748332300680024DD5534261D2357
:1052F000BC863121F3553222031CCD55D5553521BD
:105300000533DA7FCB5D7F26D20133401343C819C2
:105310003A1C391C03703031201C2F3200F076FE0D
:10532000454EBC633368BC879A793821CA555B798E
:105330003922D3551A1C2A403B210233D3183A2074
:10534000CA5DC3557F20824304210A433B20C255D6
:105350003C2151223B48CA559B00391C1A18383150
:10536000201C00F053FE3368442140223C64CC539F
:10537000D555DB7943214126F355CB5D42207F2271
:10538000C555934304252B43CE192D4D337044202E
:105390005A23C3552B6845260533DA7FF35D7F20FA
:1053A000D20103401343F1190B70FA69201C05392F
:1053B00000F02CFE2F22D35DD51901332B7017E797
:1053C000391C483100253368BD648D809A797F206F
:1053D0000A705B7901244B708B70CB787A6A8343B7
:1053E0002343CB7008201D230B7100F00FFE391CE6
:1053F000503133683D658D800C70DB797F224B70B6
:10540000CB788C7093431C431E230B710C4BCC70D8
:105410001B687F250533DA7F4B79D2012B4013437C
:1054200008203A6A4B7100F0F1FD786A396AFFF79B
:1054300025FEBD4617B0F0BD801000200040005092
:10544000F404002004400050F0B57C4B97B01B687A
:1054500069469A795C7900AF5443231C0E33DB080C
:10546000A200DB00C91A131C0E33DB08DB008D46DB
:10547000C91A6D46F9618D46081C00213D6203F092
:1054800013FC386A0021221C03F00EFC05233B6349
:105490003A6B132A00DDCEE04F2301247B633A23CD
:1054A000DC5538218023CC55392204215B42D45568
:1054B0000B43634E3B220025D3553C21A423BD87DB
:1054C000CB5533683D210533DA7FCB5D7F21D20197
:1054D0000B4013433D22D355391C3A1C281C38314C
:1054E000303200F093FD4423DD534223DC5540214C
:1054F00041228023CC55D4555B42042423434321CD
:10550000CB554422A523D355336845240533DA7F90
:10551000E35D7F21D2010B401343391CE219137064
:10552000281C4031113A00F071FD2F23DD552F2149
:10553000C85D3F287CD8FFF76FFD3C6B7D6B61B287
:105540006AB201230020FEF72BFE3C4B2F221B6882
:10555000D25D3B6199797A61B9610022BD69AA4245
:105560002BDA396948790121031C5343861C014019
:105570007B627118531C59437D6A8B006C1AFD695C
:10558000A4002C19FC600021814214DA2D4C1E1954
:10559000FC683568E458AC420AD23D6A3668AC46CD
:1055A0007D6ABE60AC447D6964466554FC68E65023
:1055B00001310433E8E70132D0E7391C48310024D7
:1055C0001D238C800B711E4B01251B680D704D70C7
:1055D0008D70CD700533DA7F4B797F26D201334051
:1055E00013433A1C201C2F324B7100F00FFD134B5C
:1055F000391C50311B683C658C809A79201C0A70DC
:105600005B7904224B701D400233ED18CB788D700E
:10561000B3431343CB7051230B710A4BAD00EA180F
:105620002F2400F0F3FCE35DE51901332B707EE7D6
:105630003B6B01332BE7BD4617B0F0BD8010002057
:10564000F40400200440005044235843044B111C30
:10565000C018C2780F2319409A430A43C27070479A
:105660000080005038B5051C141CFDF72DFF0028E4
:1056700008D00A4B882019780234C9B203F070FAB6
:105680004443023C44206843054A3F238018027883
:105690001C409A431443047038BDC04654000200B5
:1056A0000180005010B5041CFDF70EFF002808D043
:1056B000084B882019780434C9B203F051FA4443E6
:1056C000043CA023DB05198A1F22144091430C439C
:1056D0001C8210BD54000200F0B599B000AF00F07C
:1056E000F1F9D64B68461B68FF215A799B79002651
:1056F000D3181A1C5A43FB64D31DDB08DB00C01A05
:1057000085466C467C6203F0CFFAFF20FEF750FF1F
:10571000FC6CCB4BE400221C0E32181AD208D200CB
:10572000B8616846801A85463C626C463C63FC6CF6
:10573000A400221C0A32D208D200801AFC618546DD
:10574000F862FC6CA64200DB86E10024211C3A6A68
:10575000386BBC65FC6503F0A7FA211CFA69F86A8E
:1057600003F0A2FAA023DB05D968B64A0A40DA6042
:10577000B24BBD6D1B68F96D5A79013A0BD398187D
:10578000C07A01241F2802D884402543F5E7203839
:1057900084402143F1E7BD659A79013A0CD398180A
:1057A0002F30007801241F2802D884402543F4E7D5
:1057B000203884402143F0E7A024BD65F965E40565
:1057C000236BAB432363F86D616B7865626BC343F6
:1057D00019408901920E890992060A436263A26BFD
:1057E000B96D64208A43A263626B13409A01636BB4
:1057F00092099B0E9B0613436363FEF7D9FEFDF7E8
:105800007DFF8E4B1B689A79964203DA9B192833E9
:10581000DB7902E0B21A9B18DB7A3B653A6D1F2AEE
:1058200009DC386D226B012383401A432263A26B8B
:105830001343A36316E03B6D616B203B01229A404A
:10584000131C1143626B8901920E890992060A4367
:105850006263E26B13439A01E36B92099B0E9B0612
:105860001343E3630A20FEF7A3FEFDF747FF3C6DF9
:1058700001231F2C03DCA3409D43BD6505E03A6D69
:105880007C6D203A93409C43FC65A024E405A36B07
:10589000B86D01250343A363E26BF96DE36B0A4323
:1058A00092019B0E92099B061343E363FEF7C4FC2F
:1058B000E26B8023DB041343E3633B6B6249BC6907
:1058C0008A68A24217D3A022D205106C5C68B86522
:1058D000526CFA65944203D308D11C68844205D205
:1058E0008968FC6ADA60AA009860A150FC6C0135F6
:1058F0000833A542E2DDFEF7C9FCA023DB05D96B26
:10590000524A0A40DA63012D00D193E0FB6C7C6AB5
:105910007343E3183C6D3B640123A340BB63DB1777
:10592000FB6320225242D317B86BF96B80185941A0
:10593000386179616B1E396BDA008C18FA6A9B004A
:10594000D318013D7B63002D74D0231C083B1A68DB
:1059500020685B68616890439943BA6BFB6BB864DD
:10596000796410401940F860B960B86C39697A6C94
:1059700008407B697860F86C1A403A6078657A6D07
:10598000013A7A6552D32D4B796D1B689A79914211
:1059900003DA5B182833DA7903E0786D821A9B18F2
:1059A000DA7A01231F2A10DC191CB86C91400842D6
:1059B000E5D0796BA022D2050E689168B868090C11
:1059C0000B409168FA68C9B210E0203A181C796C53
:1059D00090400142D3D07A6B38681668A022D20575
:1059E0009168090C0B4091687A68C9B2024304D0EF
:1059F000396C7A6DFF238B54C1E711480133861B44
:105A00009E40BE62FF26E623711A5943104A114890
:105A1000891803F0A5F8011CB86A03F053F8B042E6
:105A200000DD301C3B6C796D5854A8E77B6B083C5B
:105A3000043B86E73E6D013683E6C04680100020B9
:105A4000FFFFFF00FFFF0FFF10E000E0FFFFFFFB85
:105A50005C5D000040420F00E3B25A2258205921F9
:105A6000C355CB55D3550A4B5B241B685C200533CB
:105A7000DB7F5D21E3550023C3550123381CCB5543
:105A80005830796A00F03EF8BD4619B0F0BDC04606
:105A9000F4040020014B18607047C0468C100020B1
:105AA000014B18687047C0468C100020014B1860ED
:105AB0007047C04688100020014B18687047C046E8
:105AC00088100020014B18687047C04680030020F2
:105AD000F7B50A4C7146061C201C7546FEF71AFDE8
